{
  "_format": "hh3-artifact-1",
  "contractName": "PropertyToken",
  "sourceName": "contracts/PropertyToken.sol",
  "abi": [
    {
      "inputs": [
        {
          "internalType": "string",
          "name": "_name",
          "type": "string"
        },
        {
          "internalType": "string",
          "name": "_symbol",
          "type": "string"
        },
        {
          "internalType": "uint256",
          "name": "_totalShares",
          "type": "uint256"
        },
        {
          "internalType": "uint256",
          "name": "_pricePerShare",
          "type": "uint256"
        },
        {
          "internalType": "string",
          "name": "_propertyAddress",
          "type": "string"
        },
        {
          "internalType": "string",
          "name": "_propertyImageIPFS",
          "type": "string"
        },
        {
          "internalType": "string",
          "name": "_propertyDescription",
          "type": "string"
        }
      ],
      "stateMutability": "nonpayable",
      "type": "constructor"
    },
    {
      "inputs": [
        {
          "internalType": "address",
          "name": "spender",
          "type": "address"
        },
        {
          "internalType": "uint256",
          "name": "allowance",
          "type": "uint256"
        },
        {
          "internalType": "uint256",
          "name": "needed",
          "type": "uint256"
        }
      ],
      "name": "ERC20InsufficientAllowance",
      "type": "error"
    },
    {
      "inputs": [
        {
          "internalType": "address",
          "name": "sender",
          "type": "address"
        },
        {
          "internalType": "uint256",
          "name": "balance",
          "type": "uint256"
        },
        {
          "internalType": "uint256",
          "name": "needed",
          "type": "uint256"
        }
      ],
      "name": "ERC20InsufficientBalance",
      "type": "error"
    },
    {
      "inputs": [
        {
          "internalType": "address",
          "name": "approver",
          "type": "address"
        }
      ],
      "name": "ERC20InvalidApprover",
      "type": "error"
    },
    {
      "inputs": [
        {
          "internalType": "address",
          "name": "receiver",
          "type": "address"
        }
      ],
      "name": "ERC20InvalidReceiver",
      "type": "error"
    },
    {
      "inputs": [
        {
          "internalType": "address",
          "name": "sender",
          "type": "address"
        }
      ],
      "name": "ERC20InvalidSender",
      "type": "error"
    },
    {
      "inputs": [
        {
          "internalType": "address",
          "name": "spender",
          "type": "address"
        }
      ],
      "name": "ERC20InvalidSpender",
      "type": "error"
    },
    {
      "inputs": [
        {
          "internalType": "address",
          "name": "owner",
          "type": "address"
        }
      ],
      "name": "OwnableInvalidOwner",
      "type": "error"
    },
    {
      "inputs": [
        {
          "internalType": "address",
          "name": "account",
          "type": "address"
        }
      ],
      "name": "OwnableUnauthorizedAccount",
      "type": "error"
    },
    {
      "anonymous": false,
      "inputs": [
        {
          "indexed": true,
          "internalType": "address",
          "name": "owner",
          "type": "address"
        },
        {
          "indexed": true,
          "internalType": "address",
          "name": "spender",
          "type": "address"
        },
        {
          "indexed": false,
          "internalType": "uint256",
          "name": "value",
          "type": "uint256"
        }
      ],
      "name": "Approval",
      "type": "event"
    },
    {
      "anonymous": false,
      "inputs": [
        {
          "indexed": true,
          "internalType": "address",
          "name": "previousOwner",
          "type": "address"
        },
        {
          "indexed": true,
          "internalType": "address",
          "name": "newOwner",
          "type": "address"
        }
      ],
      "name": "OwnershipTransferred",
      "type": "event"
    },
    {
      "anonymous": false,
      "inputs": [
        {
          "indexed": false,
          "internalType": "string",
          "name": "newImageIPFS",
          "type": "string"
        }
      ],
      "name": "PropertyMetadataUpdated",
      "type": "event"
    },
    {
      "anonymous": false,
      "inputs": [
        {
          "indexed": false,
          "internalType": "bool",
          "name": "isActive",
          "type": "bool"
        }
      ],
      "name": "SaleStatusChanged",
      "type": "event"
    },
    {
      "anonymous": false,
      "inputs": [
        {
          "indexed": true,
          "internalType": "address",
          "name": "buyer",
          "type": "address"
        },
        {
          "indexed": false,
          "internalType": "uint256",
          "name": "bought",
          "type": "uint256"
        },
        {
          "indexed": false,
          "internalType": "uint256",
          "name": "amountPaid",
          "type": "uint256"
        }
      ],
      "name": "SharesPurchased",
      "type": "event"
    },
    {
      "anonymous": false,
      "inputs": [
        {
          "indexed": true,
          "internalType": "address",
          "name": "from",
          "type": "address"
        },
        {
          "indexed": true,
          "internalType": "address",
          "name": "to",
          "type": "address"
        },
        {
          "indexed": false,
          "internalType": "uint256",
          "name": "value",
          "type": "uint256"
        }
      ],
      "name": "Transfer",
      "type": "event"
    },
    {
      "inputs": [
        {
          "internalType": "address",
          "name": "owner",
          "type": "address"
        },
        {
          "internalType": "address",
          "name": "spender",
          "type": "address"
        }
      ],
      "name": "allowance",
      "outputs": [
        {
          "internalType": "uint256",
          "name": "",
          "type": "uint256"
        }
      ],
      "stateMutability": "view",
      "type": "function"
    },
    {
      "inputs": [
        {
          "internalType": "address",
          "name": "spender",
          "type": "address"
        },
        {
          "internalType": "uint256",
          "name": "value",
          "type": "uint256"
        }
      ],
      "name": "approve",
      "outputs": [
        {
          "internalType": "bool",
          "name": "",
          "type": "bool"
        }
      ],
      "stateMutability": "nonpayable",
      "type": "function"
    },
    {
      "inputs": [],
      "name": "availableShares",
      "outputs": [
        {
          "internalType": "uint256",
          "name": "",
          "type": "uint256"
        }
      ],
      "stateMutability": "view",
      "type": "function"
    },
    {
      "inputs": [
        {
          "internalType": "address",
          "name": "account",
          "type": "address"
        }
      ],
      "name": "balanceOf",
      "outputs": [
        {
          "internalType": "uint256",
          "name": "",
          "type": "uint256"
        }
      ],
      "stateMutability": "view",
      "type": "function"
    },
    {
      "inputs": [],
      "name": "decimals",
      "outputs": [
        {
          "internalType": "uint8",
          "name": "",
          "type": "uint8"
        }
      ],
      "stateMutability": "view",
      "type": "function"
    },
    {
      "inputs": [],
      "name": "name",
      "outputs": [
        {
          "internalType": "string",
          "name": "",
          "type": "string"
        }
      ],
      "stateMutability": "view",
      "type": "function"
    },
    {
      "inputs": [],
      "name": "owner",
      "outputs": [
        {
          "internalType": "address",
          "name": "",
          "type": "address"
        }
      ],
      "stateMutability": "view",
      "type": "function"
    },
    {
      "inputs": [],
      "name": "pricePerShare",
      "outputs": [
        {
          "internalType": "uint256",
          "name": "",
          "type": "uint256"
        }
      ],
      "stateMutability": "view",
      "type": "function"
    },
    {
      "inputs": [],
      "name": "propertyAddress",
      "outputs": [
        {
          "internalType": "string",
          "name": "",
          "type": "string"
        }
      ],
      "stateMutability": "view",
      "type": "function"
    },
    {
      "inputs": [],
      "name": "propertyDescription",
      "outputs": [
        {
          "internalType": "string",
          "name": "",
          "type": "string"
        }
      ],
      "stateMutability": "view",
      "type": "function"
    },
    {
      "inputs": [],
      "name": "propertyImageIPFS",
      "outputs": [
        {
          "internalType": "string",
          "name": "",
          "type": "string"
        }
      ],
      "stateMutability": "view",
      "type": "function"
    },
    {
      "inputs": [
        {
          "internalType": "uint256",
          "name": "_amount",
          "type": "uint256"
        }
      ],
      "name": "purchaseShares",
      "outputs": [],
      "stateMutability": "payable",
      "type": "function"
    },
    {
      "inputs": [],
      "name": "renounceOwnership",
      "outputs": [],
      "stateMutability": "nonpayable",
      "type": "function"
    },
    {
      "inputs": [],
      "name": "saleActive",
      "outputs": [
        {
          "internalType": "bool",
          "name": "",
          "type": "bool"
        }
      ],
      "stateMutability": "view",
      "type": "function"
    },
    {
      "inputs": [
        {
          "internalType": "bool",
          "name": "_active",
          "type": "bool"
        }
      ],
      "name": "setSaleActive",
      "outputs": [],
      "stateMutability": "nonpayable",
      "type": "function"
    },
    {
      "inputs": [],
      "name": "symbol",
      "outputs": [
        {
          "internalType": "string",
          "name": "",
          "type": "string"
        }
      ],
      "stateMutability": "view",
      "type": "function"
    },
    {
      "inputs": [],
      "name": "totalShares",
      "outputs": [
        {
          "internalType": "uint256",
          "name": "",
          "type": "uint256"
        }
      ],
      "stateMutability": "view",
      "type": "function"
    },
    {
      "inputs": [],
      "name": "totalSupply",
      "outputs": [
        {
          "internalType": "uint256",
          "name": "",
          "type": "uint256"
        }
      ],
      "stateMutability": "view",
      "type": "function"
    },
    {
      "inputs": [
        {
          "internalType": "address",
          "name": "to",
          "type": "address"
        },
        {
          "internalType": "uint256",
          "name": "value",
          "type": "uint256"
        }
      ],
      "name": "transfer",
      "outputs": [
        {
          "internalType": "bool",
          "name": "",
          "type": "bool"
        }
      ],
      "stateMutability": "nonpayable",
      "type": "function"
    },
    {
      "inputs": [
        {
          "internalType": "address",
          "name": "from",
          "type": "address"
        },
        {
          "internalType": "address",
          "name": "to",
          "type": "address"
        },
        {
          "internalType": "uint256",
          "name": "value",
          "type": "uint256"
        }
      ],
      "name": "transferFrom",
      "outputs": [
        {
          "internalType": "bool",
          "name": "",
          "type": "bool"
        }
      ],
      "stateMutability": "nonpayable",
      "type": "function"
    },
    {
      "inputs": [
        {
          "internalType": "address",
          "name": "newOwner",
          "type": "address"
        }
      ],
      "name": "transferOwnership",
      "outputs": [],
      "stateMutability": "nonpayable",
      "type": "function"
    },
    {
      "inputs": [
        {
          "internalType": "string",
          "name": "_newImageIPFS",
          "type": "string"
        }
      ],
      "name": "updatePropertyImage",
      "outputs": [],
      "stateMutability": "nonpayable",
      "type": "function"
    }
  ],
  "bytecode": "0x608060405234801561000f575f5ffd5b506040516117f63803806117f683398101604081905261002e91610337565b338787600361003d83826104b4565b50600461004a82826104b4565b5050506001600160a01b03811661007b57604051631e4fbdf760e01b81525f60048201526024015b60405180910390fd5b610084816100eb565b506009859055600a849055600661009b84826104b4565b5060076100a883826104b4565b5060086100b582826104b4565b50600b805460ff191690556100df336100d06012600a610667565b6100da908861067c565b61013c565b505050505050506106a6565b600580546001600160a01b038381166001600160a01b0319831681179093556040519116919082907f8be0079c531659141344cd1fd0a4f28419497f9722a3daafe3b4186f6b6457e0905f90a35050565b6001600160a01b0382166101655760405163ec442f0560e01b81525f6004820152602401610072565b6101705f8383610174565b5050565b6001600160a01b03831661019e578060025f8282546101939190610693565b9091555061020e9050565b6001600160a01b0383165f90815260208190526040902054818110156101f05760405163391434e360e21b81526001600160a01b03851660048201526024810182905260448101839052606401610072565b6001600160a01b0384165f9081526020819052604090209082900390555b6001600160a01b03821661022a57600280548290039055610248565b6001600160a01b0382165f9081526020819052604090208054820190555b816001600160a01b0316836001600160a01b03167fddf252ad1be2c89b69c2b068fc378daa952ba7f163c4a11628f55a4df523b3ef8360405161028d91815260200190565b60405180910390a3505050565b634e487b7160e01b5f52604160045260245ffd5b5f82601f8301126102bd575f5ffd5b81516001600160401b038111156102d6576102d661029a565b604051601f8201601f19908116603f011681016001600160401b03811182821017156103045761030461029a565b60405281815283820160200185101561031b575f5ffd5b8160208501602083015e5f918101602001919091529392505050565b5f5f5f5f5f5f5f60e0888a03121561034d575f5ffd5b87516001600160401b03811115610362575f5ffd5b61036e8a828b016102ae565b60208a015190985090506001600160401b0381111561038b575f5ffd5b6103978a828b016102ae565b60408a015160608b015160808c0151929950909750955090506001600160401b038111156103c3575f5ffd5b6103cf8a828b016102ae565b60a08a015190945090506001600160401b038111156103ec575f5ffd5b6103f88a828b016102ae565b60c08a015190935090506001600160401b03811115610415575f5ffd5b6104218a828b016102ae565b91505092959891949750929550565b600181811c9082168061044457607f821691505b60208210810361046257634e487b7160e01b5f52602260045260245ffd5b50919050565b601f8211156104af57805f5260205f20601f840160051c8101602085101561048d5750805b601f840160051c820191505b818110156104ac575f8155600101610499565b50505b505050565b81516001600160401b038111156104cd576104cd61029a565b6104e1816104db8454610430565b84610468565b6020601f821160018114610513575f83156104fc5750848201515b5f19600385901b1c1916600184901b1784556104ac565b5f84815260208120601f198516915b828110156105425787850151825560209485019460019092019101610522565b508482101561055f57868401515f19600387901b60f8161c191681555b50505050600190811b01905550565b634e487b7160e01b5f52601160045260245ffd5b6001815b60018411156105bd578085048111156105a1576105a161056e565b60018416156105af57908102905b60019390931c928002610586565b935093915050565b5f826105d357506001610661565b816105df57505f610661565b81600181146105f557600281146105ff5761061b565b6001915050610661565b60ff8411156106105761061061056e565b50506001821b610661565b5060208310610133831016604e8410600b841016171561063e575081810a610661565b61064a5f198484610582565b805f190482111561065d5761065d61056e565b0290505b92915050565b5f61067560ff8416836105c5565b9392505050565b80820281158282048414176106615761066161056e565b808201808211156106615761066161056e565b611143806106b35f395ff3fe608060405260043610610131575f3560e01c80638da5cb5b116100a8578063a9059cbb1161006d578063a9059cbb14610314578063b8f6391b14610333578063c6f7f6a414610347578063dd62ed3e1461035b578063df48981a1461039f578063f2fde38b146103b2575f5ffd5b80638da5cb5b146102915780639083eac2146102b857806395d89b41146102d757806399530b06146102eb578063a173f79e14610300575f5ffd5b80633a98ef39116100f95780633a98ef39146101e657806366440d71146101fb57806368428a1b1461020f57806370a0823114610228578063715018a61461025c578063841718a614610272575f5ffd5b806306fdde0314610135578063095ea7b31461015f57806318160ddd1461018e57806323b872dd146101ac578063313ce567146101cb575b5f5ffd5b348015610140575f5ffd5b506101496103d1565b6040516101569190610c81565b60405180910390f35b34801561016a575f5ffd5b5061017e610179366004610cd1565b610461565b6040519015158152602001610156565b348015610199575f5ffd5b506002545b604051908152602001610156565b3480156101b7575f5ffd5b5061017e6101c6366004610cf9565b61047a565b3480156101d6575f5ffd5b5060405160128152602001610156565b3480156101f1575f5ffd5b5061019e60095481565b348015610206575f5ffd5b5061014961049d565b34801561021a575f5ffd5b50600b5461017e9060ff1681565b348015610233575f5ffd5b5061019e610242366004610d33565b6001600160a01b03165f9081526020819052604090205490565b348015610267575f5ffd5b50610270610529565b005b34801561027d575f5ffd5b5061027061028c366004610d53565b61053c565b34801561029c575f5ffd5b506005546040516001600160a01b039091168152602001610156565b3480156102c3575f5ffd5b506102706102d2366004610d86565b61058c565b3480156102e2575f5ffd5b506101496105d0565b3480156102f6575f5ffd5b5061019e600a5481565b34801561030b575f5ffd5b5061019e6105df565b34801561031f575f5ffd5b5061017e61032e366004610cd1565b610610565b34801561033e575f5ffd5b5061014961061d565b348015610352575f5ffd5b5061014961062a565b348015610366575f5ffd5b5061019e610375366004610e39565b6001600160a01b039182165f90815260016020908152604080832093909416825291909152205490565b6102706103ad366004610e6a565b610637565b3480156103bd575f5ffd5b506102706103cc366004610d33565b6108e3565b6060600380546103e090610e81565b80601f016020809104026020016040519081016040528092919081815260200182805461040c90610e81565b80156104575780601f1061042e57610100808354040283529160200191610457565b820191905f5260205f20905b81548152906001019060200180831161043a57829003601f168201915b5050505050905090565b5f3361046e818585610920565b60019150505b92915050565b5f33610487858285610932565b6104928585856109ae565b506001949350505050565b600680546104aa90610e81565b80601f01602080910402602001604051908101604052809291908181526020018280546104d690610e81565b80156105215780601f106104f857610100808354040283529160200191610521565b820191905f5260205f20905b81548152906001019060200180831161050457829003601f168201915b505050505081565b610531610a0b565b61053a5f610a38565b565b610544610a0b565b600b805460ff19168215159081179091556040519081527ff3637cdf61687bb87179d2da614bc1f4aa93c3cbf40282ccd0a15ecad9184cc1906020015b60405180910390a150565b610594610a0b565b60076105a08282610f04565b507f30ec0793f1b512d52d59496c620961353fd26597127bf72c5f20976e37061104816040516105819190610c81565b6060600480546103e090610e81565b5f6105ec6012600a6110b6565b6106016102426005546001600160a01b031690565b61060b91906110c4565b905090565b5f3361046e8185856109ae565b600880546104aa90610e81565b600780546104aa90610e81565b600b5460ff1661068e5760405162461bcd60e51b815260206004820152601960248201527f76656e6461206e616f206573746120646973706f6e6976656c0000000000000060448201526064015b60405180910390fd5b5f81116106f15760405162461bcd60e51b815260206004820152602b60248201527f7175616e7469646164652064652061636f6573206465766520736572206d616960448201526a6f7220717565207a65726f60a81b6064820152608401610685565b600a546106fe90826110e3565b341461073e5760405162461bcd60e51b815260206004820152600f60248201526e76616c6f7220696e636f727265746f60881b6044820152606401610685565b61074a6012600a6110b6565b61075490826110e3565b6107696102426005546001600160a01b031690565b10156107ad5760405162461bcd60e51b8152602060048201526013602482015272436f74617320696e737566696369656e74657360681b6044820152606401610685565b6107de6107c26005546001600160a01b031690565b336107cf6012600a6110b6565b6107d990856110e3565b6109ae565b5f6107f16005546001600160a01b031690565b6001600160a01b0316346040515f6040518083038185875af1925050503d805f8114610838576040519150601f19603f3d011682016040523d82523d5f602084013e61083d565b606091505b50509050806108a55760405162461bcd60e51b815260206004820152602e60248201527f46616c686120616f207472616e7366657269722066756e646f7320706172612060448201526d6f2070726f70726965746172696f60901b6064820152608401610685565b6040805183815234602082015233917f630b54f21d1c5ae41c4633ad96e8c15ce15665365eded6a38476ffa71c8ace6c910160405180910390a25050565b6108eb610a0b565b6001600160a01b03811661091457604051631e4fbdf760e01b81525f6004820152602401610685565b61091d81610a38565b50565b61092d8383836001610a89565b505050565b6001600160a01b038381165f908152600160209081526040808320938616835292905220545f198110156109a8578181101561099a57604051637dc7a0d960e11b81526001600160a01b03841660048201526024810182905260448101839052606401610685565b6109a884848484035f610a89565b50505050565b6001600160a01b0383166109d757604051634b637e8f60e11b81525f6004820152602401610685565b6001600160a01b038216610a005760405163ec442f0560e01b81525f6004820152602401610685565b61092d838383610b5b565b6005546001600160a01b0316331461053a5760405163118cdaa760e01b8152336004820152602401610685565b600580546001600160a01b038381166001600160a01b0319831681179093556040519116919082907f8be0079c531659141344cd1fd0a4f28419497f9722a3daafe3b4186f6b6457e0905f90a35050565b6001600160a01b038416610ab25760405163e602df0560e01b81525f6004820152602401610685565b6001600160a01b038316610adb57604051634a1406b160e11b81525f6004820152602401610685565b6001600160a01b038085165f90815260016020908152604080832093871683529290522082905580156109a857826001600160a01b0316846001600160a01b03167f8c5be1e5ebec7d5bd14f71427d1e84f3dd0314c0f7b2291e5b200ac8c7c3b92584604051610b4d91815260200190565b60405180910390a350505050565b6001600160a01b038316610b85578060025f828254610b7a91906110fa565b90915550610bf59050565b6001600160a01b0383165f9081526020819052604090205481811015610bd75760405163391434e360e21b81526001600160a01b03851660048201526024810182905260448101839052606401610685565b6001600160a01b0384165f9081526020819052604090209082900390555b6001600160a01b038216610c1157600280548290039055610c2f565b6001600160a01b0382165f9081526020819052604090208054820190555b816001600160a01b0316836001600160a01b03167fddf252ad1be2c89b69c2b068fc378daa952ba7f163c4a11628f55a4df523b3ef83604051610c7491815260200190565b60405180910390a3505050565b602081525f82518060208401528060208501604085015e5f604082850101526040601f19601f83011684010191505092915050565b80356001600160a01b0381168114610ccc575f5ffd5b919050565b5f5f60408385031215610ce2575f5ffd5b610ceb83610cb6565b946020939093013593505050565b5f5f5f60608486031215610d0b575f5ffd5b610d1484610cb6565b9250610d2260208501610cb6565b929592945050506040919091013590565b5f60208284031215610d43575f5ffd5b610d4c82610cb6565b9392505050565b5f60208284031215610d63575f5ffd5b81358015158114610d4c575f5ffd5b634e487b7160e01b5f52604160045260245ffd5b5f60208284031215610d96575f5ffd5b813567ffffffffffffffff811115610dac575f5ffd5b8201601f81018413610dbc575f5ffd5b803567ffffffffffffffff811115610dd657610dd6610d72565b604051601f8201601f19908116603f0116810167ffffffffffffffff81118282101715610e0557610e05610d72565b604052818152828201602001861015610e1c575f5ffd5b816020840160208301375f91810160200191909152949350505050565b5f5f60408385031215610e4a575f5ffd5b610e5383610cb6565b9150610e6160208401610cb6565b90509250929050565b5f60208284031215610e7a575f5ffd5b5035919050565b600181811c90821680610e9557607f821691505b602082108103610eb357634e487b7160e01b5f52602260045260245ffd5b50919050565b601f82111561092d57805f5260205f20601f840160051c81016020851015610ede5750805b601f840160051c820191505b81811015610efd575f8155600101610eea565b5050505050565b815167ffffffffffffffff811115610f1e57610f1e610d72565b610f3281610f2c8454610e81565b84610eb9565b6020601f821160018114610f64575f8315610f4d5750848201515b5f19600385901b1c1916600184901b178455610efd565b5f84815260208120601f198516915b82811015610f935787850151825560209485019460019092019101610f73565b5084821015610fb057868401515f19600387901b60f8161c191681555b50505050600190811b01905550565b634e487b7160e01b5f52601160045260245ffd5b6001815b600184111561100e57808504811115610ff257610ff2610fbf565b600184161561100057908102905b60019390931c928002610fd7565b935093915050565b5f8261102457506001610474565b8161103057505f610474565b816001811461104657600281146110505761106c565b6001915050610474565b60ff84111561106157611061610fbf565b50506001821b610474565b5060208310610133831016604e8410600b841016171561108f575081810a610474565b61109b5f198484610fd3565b805f19048211156110ae576110ae610fbf565b029392505050565b5f610d4c60ff841683611016565b5f826110de57634e487b7160e01b5f52601260045260245ffd5b500490565b808202811582820484141761047457610474610fbf565b8082018082111561047457610474610fbf56fea2646970667358221220314a85b46184252f2b97268547c0dc9768931ea61a725ab7c50e94df1487403964736f6c634300081c0033",
  "linkReferences": {},
  "deployedLinkReferences": {},
  "immutableReferences": {},
  "inputSourceName": "project/contracts/PropertyToken.sol",
  "buildInfoId": "solc-0_8_28-98d3446406791be47b013d287d19850db0f8c131"
}