{
  "_format": "hh3-artifact-1",
  "contractName": "PropertyMarket",
  "sourceName": "contracts/PropertyMarket.sol",
  "abi": [
    {
      "inputs": [
        {
          "internalType": "address",
          "name": "_propertyToken",
          "type": "address"
        },
        {
          "internalType": "uint256",
          "name": "_dailyRate",
          "type": "uint256"
        },
        {
          "internalType": "address",
          "name": "_platformWallet",
          "type": "address"
        }
      ],
      "stateMutability": "nonpayable",
      "type": "constructor"
    },
    {
      "inputs": [],
      "name": "ReentrancyGuardReentrantCall",
      "type": "error"
    },
    {
      "anonymous": false,
      "inputs": [
        {
          "indexed": true,
          "internalType": "uint256",
          "name": "bookingId",
          "type": "uint256"
        },
        {
          "indexed": true,
          "internalType": "address",
          "name": "guest",
          "type": "address"
        }
      ],
      "name": "BookingCancelled",
      "type": "event"
    },
    {
      "anonymous": false,
      "inputs": [
        {
          "indexed": true,
          "internalType": "uint256",
          "name": "bookingId",
          "type": "uint256"
        },
        {
          "indexed": true,
          "internalType": "address",
          "name": "guest",
          "type": "address"
        },
        {
          "indexed": false,
          "internalType": "uint256",
          "name": "checkIn",
          "type": "uint256"
        },
        {
          "indexed": false,
          "internalType": "uint256",
          "name": "checkOut",
          "type": "uint256"
        },
        {
          "indexed": false,
          "internalType": "uint256",
          "name": "totalPaid",
          "type": "uint256"
        }
      ],
      "name": "BookingCreated",
      "type": "event"
    },
    {
      "anonymous": false,
      "inputs": [
        {
          "indexed": false,
          "internalType": "uint256",
          "name": "newRate",
          "type": "uint256"
        }
      ],
      "name": "DailyRateUpdated",
      "type": "event"
    },
    {
      "anonymous": false,
      "inputs": [
        {
          "indexed": false,
          "internalType": "uint256",
          "name": "amount",
          "type": "uint256"
        },
        {
          "indexed": false,
          "internalType": "string",
          "name": "reason",
          "type": "string"
        }
      ],
      "name": "MaintenanceFundUsed",
      "type": "event"
    },
    {
      "anonymous": false,
      "inputs": [
        {
          "indexed": true,
          "internalType": "address",
          "name": "cotista",
          "type": "address"
        },
        {
          "indexed": false,
          "internalType": "uint256",
          "name": "amount",
          "type": "uint256"
        }
      ],
      "name": "RentClaimed",
      "type": "event"
    },
    {
      "anonymous": false,
      "inputs": [
        {
          "indexed": true,
          "internalType": "uint256",
          "name": "offerId",
          "type": "uint256"
        },
        {
          "indexed": true,
          "internalType": "address",
          "name": "seller",
          "type": "address"
        }
      ],
      "name": "SaleOfferCancelled",
      "type": "event"
    },
    {
      "anonymous": false,
      "inputs": [
        {
          "indexed": true,
          "internalType": "uint256",
          "name": "offerId",
          "type": "uint256"
        },
        {
          "indexed": true,
          "internalType": "address",
          "name": "seller",
          "type": "address"
        },
        {
          "indexed": false,
          "internalType": "uint256",
          "name": "shares",
          "type": "uint256"
        },
        {
          "indexed": false,
          "internalType": "uint256",
          "name": "pricePerShare",
          "type": "uint256"
        }
      ],
      "name": "SaleOfferCreated",
      "type": "event"
    },
    {
      "anonymous": false,
      "inputs": [
        {
          "indexed": true,
          "internalType": "uint256",
          "name": "offerId",
          "type": "uint256"
        },
        {
          "indexed": true,
          "internalType": "address",
          "name": "buyer",
          "type": "address"
        },
        {
          "indexed": false,
          "internalType": "uint256",
          "name": "shares",
          "type": "uint256"
        }
      ],
      "name": "SaleOfferExecuted",
      "type": "event"
    },
    {
      "inputs": [
        {
          "internalType": "uint256",
          "name": "_checkIn",
          "type": "uint256"
        },
        {
          "internalType": "uint256",
          "name": "_checkOut",
          "type": "uint256"
        }
      ],
      "name": "bookStay",
      "outputs": [],
      "stateMutability": "payable",
      "type": "function"
    },
    {
      "inputs": [],
      "name": "bookingCount",
      "outputs": [
        {
          "internalType": "uint256",
          "name": "",
          "type": "uint256"
        }
      ],
      "stateMutability": "view",
      "type": "function"
    },
    {
      "inputs": [
        {
          "internalType": "uint256",
          "name": "",
          "type": "uint256"
        }
      ],
      "name": "bookings",
      "outputs": [
        {
          "internalType": "address",
          "name": "guest",
          "type": "address"
        },
        {
          "internalType": "uint256",
          "name": "checkIn",
          "type": "uint256"
        },
        {
          "internalType": "uint256",
          "name": "checkOut",
          "type": "uint256"
        },
        {
          "internalType": "uint256",
          "name": "totalPaid",
          "type": "uint256"
        },
        {
          "internalType": "bool",
          "name": "cancelled",
          "type": "bool"
        }
      ],
      "stateMutability": "view",
      "type": "function"
    },
    {
      "inputs": [
        {
          "internalType": "uint256",
          "name": "_bookingId",
          "type": "uint256"
        }
      ],
      "name": "cancelBooking",
      "outputs": [],
      "stateMutability": "nonpayable",
      "type": "function"
    },
    {
      "inputs": [
        {
          "internalType": "uint256",
          "name": "_offerId",
          "type": "uint256"
        }
      ],
      "name": "cancelSaleOffer",
      "outputs": [],
      "stateMutability": "nonpayable",
      "type": "function"
    },
    {
      "inputs": [],
      "name": "claimRent",
      "outputs": [],
      "stateMutability": "nonpayable",
      "type": "function"
    },
    {
      "inputs": [
        {
          "internalType": "uint256",
          "name": "",
          "type": "uint256"
        }
      ],
      "name": "cotistas",
      "outputs": [
        {
          "internalType": "address",
          "name": "",
          "type": "address"
        }
      ],
      "stateMutability": "view",
      "type": "function"
    },
    {
      "inputs": [],
      "name": "cotistasShare",
      "outputs": [
        {
          "internalType": "uint256",
          "name": "",
          "type": "uint256"
        }
      ],
      "stateMutability": "view",
      "type": "function"
    },
    {
      "inputs": [
        {
          "internalType": "uint256",
          "name": "_shares",
          "type": "uint256"
        },
        {
          "internalType": "uint256",
          "name": "_pricePerShare",
          "type": "uint256"
        }
      ],
      "name": "createSaleOffer",
      "outputs": [],
      "stateMutability": "nonpayable",
      "type": "function"
    },
    {
      "inputs": [],
      "name": "dailyRate",
      "outputs": [
        {
          "internalType": "uint256",
          "name": "",
          "type": "uint256"
        }
      ],
      "stateMutability": "view",
      "type": "function"
    },
    {
      "inputs": [
        {
          "internalType": "uint256",
          "name": "_offerId",
          "type": "uint256"
        }
      ],
      "name": "executeSaleOffer",
      "outputs": [],
      "stateMutability": "payable",
      "type": "function"
    },
    {
      "inputs": [
        {
          "internalType": "address",
          "name": "_cotista",
          "type": "address"
        }
      ],
      "name": "getPendingRent",
      "outputs": [
        {
          "internalType": "uint256",
          "name": "",
          "type": "uint256"
        }
      ],
      "stateMutability": "view",
      "type": "function"
    },
    {
      "inputs": [],
      "name": "governanceContract",
      "outputs": [
        {
          "internalType": "address",
          "name": "",
          "type": "address"
        }
      ],
      "stateMutability": "view",
      "type": "function"
    },
    {
      "inputs": [
        {
          "internalType": "address",
          "name": "",
          "type": "address"
        }
      ],
      "name": "isCotista",
      "outputs": [
        {
          "internalType": "bool",
          "name": "",
          "type": "bool"
        }
      ],
      "stateMutability": "view",
      "type": "function"
    },
    {
      "inputs": [],
      "name": "maintenanceFund",
      "outputs": [
        {
          "internalType": "uint256",
          "name": "",
          "type": "uint256"
        }
      ],
      "stateMutability": "view",
      "type": "function"
    },
    {
      "inputs": [],
      "name": "maintenanceShare",
      "outputs": [
        {
          "internalType": "uint256",
          "name": "",
          "type": "uint256"
        }
      ],
      "stateMutability": "view",
      "type": "function"
    },
    {
      "inputs": [],
      "name": "offerCount",
      "outputs": [
        {
          "internalType": "uint256",
          "name": "",
          "type": "uint256"
        }
      ],
      "stateMutability": "view",
      "type": "function"
    },
    {
      "inputs": [
        {
          "internalType": "address",
          "name": "",
          "type": "address"
        }
      ],
      "name": "pendingRent",
      "outputs": [
        {
          "internalType": "uint256",
          "name": "",
          "type": "uint256"
        }
      ],
      "stateMutability": "view",
      "type": "function"
    },
    {
      "inputs": [],
      "name": "platformShare",
      "outputs": [
        {
          "internalType": "uint256",
          "name": "",
          "type": "uint256"
        }
      ],
      "stateMutability": "view",
      "type": "function"
    },
    {
      "inputs": [],
      "name": "platformWallet",
      "outputs": [
        {
          "internalType": "address",
          "name": "",
          "type": "address"
        }
      ],
      "stateMutability": "view",
      "type": "function"
    },
    {
      "inputs": [],
      "name": "propertyToken",
      "outputs": [
        {
          "internalType": "contract PropertyToken",
          "name": "",
          "type": "address"
        }
      ],
      "stateMutability": "view",
      "type": "function"
    },
    {
      "inputs": [
        {
          "internalType": "address",
          "name": "_cotista",
          "type": "address"
        }
      ],
      "name": "registerCotista",
      "outputs": [],
      "stateMutability": "nonpayable",
      "type": "function"
    },
    {
      "inputs": [
        {
          "internalType": "uint256",
          "name": "",
          "type": "uint256"
        }
      ],
      "name": "saleOffers",
      "outputs": [
        {
          "internalType": "address",
          "name": "seller",
          "type": "address"
        },
        {
          "internalType": "uint256",
          "name": "shares",
          "type": "uint256"
        },
        {
          "internalType": "uint256",
          "name": "pricePerShare",
          "type": "uint256"
        },
        {
          "internalType": "bool",
          "name": "active",
          "type": "bool"
        }
      ],
      "stateMutability": "view",
      "type": "function"
    },
    {
      "inputs": [
        {
          "internalType": "uint256",
          "name": "_newRate",
          "type": "uint256"
        }
      ],
      "name": "setDailyRate",
      "outputs": [],
      "stateMutability": "nonpayable",
      "type": "function"
    },
    {
      "inputs": [
        {
          "internalType": "address",
          "name": "_governance",
          "type": "address"
        }
      ],
      "name": "setGovernanceContract",
      "outputs": [],
      "stateMutability": "nonpayable",
      "type": "function"
    },
    {
      "inputs": [
        {
          "internalType": "uint256",
          "name": "_amount",
          "type": "uint256"
        },
        {
          "internalType": "string",
          "name": "_reason",
          "type": "string"
        }
      ],
      "name": "useMaintenanceFund",
      "outputs": [],
      "stateMutability": "nonpayable",
      "type": "function"
    }
  ],
  "bytecode": "0x60806040526121346003556103e86004556101f4600555348015610021575f5ffd5b50604051612141380380612141833981016040819052610040916100b5565b60017f9b779b17422d0df92223018b32b4d1fa46e071723d6817e2486d003becc55f00555f80546001600160a01b039485166001600160a01b031991821617909155600192909255600680549190931691161790556100ee565b80516001600160a01b03811681146100b0575f5ffd5b919050565b5f5f5f606084860312156100c7575f5ffd5b6100d08461009a565b9250602084015191506100e56040850161009a565b90509250925092565b612046806100fb5f395ff3fe60806040526004361061017b575f3560e01c806374df19c3116100cd578063aa07b75011610087578063bf7fcf7811610062578063bf7fcf78146104fa578063d848f35414610519578063d8a330a914610538578063fa2af9da1461054d575f5ffd5b8063aa07b750146104a9578063ac22ccdd146104c8578063b172b222146104db575f5ffd5b806374df19c31461040c5780637ef14ed2146104215780638cbe51041461044057806398d15e13146104545780639a2f15e314610469578063a61a78c21461047e575f5ffd5b80632bb6ccb2116101385780635a02f6c7116101135780635a02f6c71461034c5780635de363d4146103c55780636563fd1a146103e45780636d759172146103f7575f5ffd5b80632bb6ccb2146102cd57806343ae2695146102e257806346c8dccf14610318575f5ffd5b806302eb32c91461017f5780630dca825e146101c25780631115c24d146101e35780631129753f14610206578063187ab7a2146102255780631dab301e14610244575b5f5ffd5b34801561018a575f5ffd5b506101ad610199366004611cb6565b600a6020525f908152604090205460ff1681565b60405190151581526020015b60405180910390f35b3480156101cd575f5ffd5b506101e16101dc366004611cd8565b61056c565b005b3480156101ee575f5ffd5b506101f8600e5481565b6040519081526020016101b9565b348015610211575f5ffd5b506101e1610220366004611cb6565b61075e565b348015610230575f5ffd5b506101e161023f366004611cd8565b6108a5565b34801561024f575f5ffd5b5061029961025e366004611cd8565b600b6020525f9081526040902080546001820154600283015460038401546004909401546001600160a01b0390931693919290919060ff1685565b604080516001600160a01b03909616865260208601949094529284019190915260608301521515608082015260a0016101b9565b3480156102d8575f5ffd5b506101f860025481565b3480156102ed575f5ffd5b505f54610300906001600160a01b031681565b6040516001600160a01b0390911681526020016101b9565b348015610323575f5ffd5b506101f8610332366004611cb6565b6001600160a01b03165f9081526008602052604090205490565b348015610357575f5ffd5b50610399610366366004611cd8565b600c6020525f908152604090208054600182015460028301546003909301546001600160a01b0390921692909160ff1684565b604080516001600160a01b039095168552602085019390935291830152151560608201526080016101b9565b3480156103d0575f5ffd5b506101e16103df366004611cb6565b6109b8565b6101e16103f2366004611cef565b610ae6565b348015610402575f5ffd5b506101f8600d5481565b348015610417575f5ffd5b506101f860015481565b34801561042c575f5ffd5b5061030061043b366004611cd8565b610df0565b34801561044b575f5ffd5b506101e1610e18565b34801561045f575f5ffd5b506101f860055481565b348015610474575f5ffd5b506101f860045481565b348015610489575f5ffd5b506101f8610498366004611cb6565b60086020525f908152604090205481565b3480156104b4575f5ffd5b506101e16104c3366004611cef565b610fdc565b6101e16104d6366004611cd8565b6112a8565b3480156104e6575f5ffd5b50600754610300906001600160a01b031681565b348015610505575f5ffd5b506101e1610514366004611d0f565b61162c565b348015610524575f5ffd5b506101e1610533366004611cd8565b611857565b348015610543575f5ffd5b506101f860035481565b348015610558575f5ffd5b50600654610300906001600160a01b031681565b610574611934565b5f818152600b6020526040902080546001600160a01b031633146105d15760405162461bcd60e51b815260206004820152600f60248201526e4e616f2065206f20686f737065646560881b60448201526064015b60405180910390fd5b600481015460ff16156106155760405162461bcd60e51b815260206004820152600c60248201526b4a612063616e63656c61646f60a01b60448201526064016105c8565b8060010154421061065d5760405162461bcd60e51b8152602060048201526012602482015271436865636b2d696e206a6120706173736f7560701b60448201526064016105c8565b60048101805460ff1916600117905560038101545f90606490610681906050611d9a565b61068b9190611db1565b6040519091505f90339083908381818185875af1925050503d805f81146106cd576040519150601f19603f3d011682016040523d82523d5f602084013e6106d2565b606091505b50509050806107165760405162461bcd60e51b815260206004820152601060248201526f5265656d626f6c736f2066616c686f7560801b60448201526064016105c8565b604051339085907f405ffc42ca8bb68e3a98a64aa11cec9f085da8d5fab0e36c73abff99bad8cdc9905f90a350505061075b60015f516020611ff15f395f51905f5255565b50565b5f5f9054906101000a90046001600160a01b03166001600160a01b0316638da5cb5b6040518163ffffffff1660e01b8152600401602060405180830381865afa1580156107ad573d5f5f3e3d5ffd5b505050506040513d601f19601f820116820180604052508101906107d19190611dd0565b6001600160a01b0316336001600160a01b0316146108315760405162461bcd60e51b815260206004820152601b60248201527f4170656e6173206f20646f6e6f20706f6465206578656375746172000000000060448201526064016105c8565b6007546001600160a01b0316156108835760405162461bcd60e51b8152602060048201526016602482015275476f7665726e616e6361206a6120646566696e69646160501b60448201526064016105c8565b600780546001600160a01b0319166001600160a01b0392909216919091179055565b5f5f9054906101000a90046001600160a01b03166001600160a01b0316638da5cb5b6040518163ffffffff1660e01b8152600401602060405180830381865afa1580156108f4573d5f5f3e3d5ffd5b505050506040513d601f19601f820116820180604052508101906109189190611dd0565b6001600160a01b0316336001600160a01b0316148061094157506007546001600160a01b031633145b61097d5760405162461bcd60e51b815260206004820152600d60248201526c53656d207065726d697373616f60981b60448201526064016105c8565b60018190556040518181527f6ed114cf5120e1289837038aad9d22456d2a33f7e63198f79a90d742d21afbdd9060200160405180910390a150565b5f80546040516370a0823160e01b81526001600160a01b038481166004830152909116906370a0823190602401602060405180830381865afa158015610a00573d5f5f3e3d5ffd5b505050506040513d601f19601f82011682018060405250810190610a249190611deb565b11610a615760405162461bcd60e51b815260206004820152600d60248201526c4e616f206520636f746973746160981b60448201526064016105c8565b6001600160a01b0381165f908152600a602052604090205460ff1661075b576009805460018181019092557f6e1540171b6c0c960b71a7020d9f60077f6af931a8bbf590da0223dacf75c7af0180546001600160a01b0384166001600160a01b031990911681179091555f908152600a60205260409020805460ff1916909117905550565b610aee611934565b5f80546040516370a0823160e01b81523360048201526001600160a01b03909116906370a0823190602401602060405180830381865afa158015610b34573d5f5f3e3d5ffd5b505050506040513d601f19601f82011682018060405250810190610b589190611deb565b11610b755760405162461bcd60e51b81526004016105c890611e02565b808210610bb45760405162461bcd60e51b815260206004820152600d60248201526c4461746120696e76616c69646160981b60448201526064016105c8565b42821015610bfa5760405162461bcd60e51b8152602060048201526013602482015272436865636b2d696e206e6f207061737361646f60681b60448201526064016105c8565b5f62015180610c098484611e39565b610c139190611db1565b90505f8111610c555760405162461bcd60e51b815260206004820152600e60248201526d4d696e696d6f2031206e6f69746560901b60448201526064016105c8565b5f60015482610c649190611d9a565b9050803414610ca75760405162461bcd60e51b815260206004820152600f60248201526e56616c6f7220696e636f727265746f60881b60448201526064016105c8565b610cb1848461194f565b15610cf45760405162461bcd60e51b8152602060048201526013602482015272446174617320696e646973706f6e697665697360681b60448201526064016105c8565b600d80545f9182610d0483611e4c565b909155506040805160a081018252338152602080820189815282840189815234606085018181525f60808701818152898252600b90965296909620945185546001600160a01b0319166001600160a01b039091161785559151600185015551600284015592516003830155516004909101805460ff1916911515919091179055909150610d90906119f4565b604080518681526020810186905234818301529051339183917f490c027ba28b0cc04e9048cd0b703b7fd45fffa83b122368c1751ebb99c5ffc79181900360600190a3505050610dec60015f516020611ff15f395f51905f5255565b5050565b60098181548110610dff575f80fd5b5f918252602090912001546001600160a01b0316905081565b610e20611934565b5f80546040516370a0823160e01b81523360048201526001600160a01b03909116906370a0823190602401602060405180830381865afa158015610e66573d5f5f3e3d5ffd5b505050506040513d601f19601f82011682018060405250810190610e8a9190611deb565b11610ea75760405162461bcd60e51b81526004016105c890611e02565b335f9081526008602052604090205480610efa5760405162461bcd60e51b815260206004820152601460248201527329b2b6903932b73230903830b9309039b0b1b0b960611b60448201526064016105c8565b335f818152600860205260408082208290555190919083908381818185875af1925050503d805f8114610f48576040519150601f19603f3d011682016040523d82523d5f602084013e610f4d565b606091505b5050905080610f8d5760405162461bcd60e51b815260206004820152600c60248201526b53617175652066616c686f7560a01b60448201526064016105c8565b60405182815233907f70d7b7410abe774750abf422fdba0ea57eb08e1de4c2f120ed398156a2a70ad69060200160405180910390a25050610fda60015f516020611ff15f395f51905f5255565b565b5f80546040516370a0823160e01b81523360048201526001600160a01b03909116906370a0823190602401602060405180830381865afa158015611022573d5f5f3e3d5ffd5b505050506040513d601f19601f820116820180604052508101906110469190611deb565b116110635760405162461bcd60e51b81526004016105c890611e02565b5f82116110b25760405162461bcd60e51b815260206004820152601b60248201527f536861726573206465766520736572206d61696f72207175652030000000000060448201526064016105c8565b5f5f9054906101000a90046001600160a01b03166001600160a01b031663313ce5676040518163ffffffff1660e01b8152600401602060405180830381865afa158015611101573d5f5f3e3d5ffd5b505050506040513d601f19601f820116820180604052508101906111259190611e64565b61113090600a611f67565b61113a9083611d9a565b5f546040516370a0823160e01b81523360048201526001600160a01b03909116906370a0823190602401602060405180830381865afa15801561117f573d5f5f3e3d5ffd5b505050506040513d601f19601f820116820180604052508101906111a39190611deb565b10156111e65760405162461bcd60e51b815260206004820152601260248201527153616c646f20696e737566696369656e746560701b60448201526064016105c8565b600e80545f91826111f683611e4c565b90915550604080516080810182523380825260208083018881528385018881526001606086018181525f898152600c8652889020965187546001600160a01b0319166001600160a01b03909116178755925190860155516002850155516003909301805460ff191693151593909317909255825187815291820186905292935083917fab8b9d63a8e36de953b45cfe4c6e2f9d60c64d62e3ed24179e8b90b3923e162b910160405180910390a3505050565b6112b0611934565b5f818152600c60205260409020600381015460ff166113025760405162461bcd60e51b815260206004820152600e60248201526d4f666572746120696e617469766160901b60448201526064016105c8565b8054336001600160a01b039091160361135d5760405162461bcd60e51b815260206004820152601b60248201527f4e616f20706f646520636f6d7072617220737561206f6665727461000000000060448201526064016105c8565b5f816002015482600101546113729190611d9a565b90508034146113b55760405162461bcd60e51b815260206004820152600f60248201526e56616c6f7220696e636f727265746f60881b60448201526064016105c8565b60038201805460ff19169055335f908152600a602052604090205460ff16611431576009805460018181019092557f6e1540171b6c0c960b71a7020d9f60077f6af931a8bbf590da0223dacf75c7af0180546001600160a01b031916339081179091555f908152600a60205260409020805460ff191690911790555b5f5482546040805163313ce56760e01b815290516001600160a01b03938416936323b872dd9316913391859163313ce5679160048083019260209291908290030181865afa158015611485573d5f5f3e3d5ffd5b505050506040513d601f19601f820116820180604052508101906114a99190611e64565b6114b490600a611f67565b86600101546114c39190611d9a565b6040516001600160e01b031960e086901b1681526001600160a01b03938416600482015292909116602483015260448201526064016020604051808303815f875af1158015611514573d5f5f3e3d5ffd5b505050506040513d601f19601f820116820180604052508101906115389190611f75565b5081546040515f916001600160a01b03169034908381818185875af1925050503d805f8114611582576040519150601f19603f3d011682016040523d82523d5f602084013e611587565b606091505b50509050806115cb5760405162461bcd60e51b815260206004820152601060248201526f506167616d656e746f2066616c686f7560801b60448201526064016105c8565b336001600160a01b0316847ff1c654d7d6c303c948092659e734b5d21bb60122f1a18c82f116e7b23fd809e9856001015460405161160b91815260200190565b60405180910390a350505061075b60015f516020611ff15f395f51905f5255565b5f5f9054906101000a90046001600160a01b03166001600160a01b0316638da5cb5b6040518163ffffffff1660e01b8152600401602060405180830381865afa15801561167b573d5f5f3e3d5ffd5b505050506040513d601f19601f8201168201806040525081019061169f9190611dd0565b6001600160a01b0316336001600160a01b031614806116c857506007546001600160a01b031633145b6117045760405162461bcd60e51b815260206004820152600d60248201526c53656d207065726d697373616f60981b60448201526064016105c8565b61170c611934565b60025483111561175e5760405162461bcd60e51b815260206004820152601b60248201527f53616c646f20696e737566696369656e7465206e6f2066756e646f000000000060448201526064016105c8565b8260025f82825461176f9190611e39565b90915550506040515f90339085908381818185875af1925050503d805f81146117b3576040519150601f19603f3d011682016040523d82523d5f602084013e6117b8565b606091505b50509050806118005760405162461bcd60e51b81526020600482015260146024820152735472616e73666572656e6369612066616c686f7560601b60448201526064016105c8565b7f7062f17cb8c0aa2d8fbd786d0aa9d3986805633e0531d13f57244f4982d78ce184848460405161183393929190611f94565b60405180910390a15061185260015f516020611ff15f395f51905f5255565b505050565b5f818152600c6020526040902080546001600160a01b031633146118b05760405162461bcd60e51b815260206004820152601060248201526f2730b790329037903b32b73232b237b960811b60448201526064016105c8565b600381015460ff166118f85760405162461bcd60e51b81526020600482015260116024820152704f6665727461206a6120696e617469766160781b60448201526064016105c8565b60038101805460ff19169055604051339083907f6087a06b2a100535feab90978d134c28fd732c41ae517239d0ec5c0e5cc40e86905f90a35050565b61193c611c73565b60025f516020611ff15f395f51905f5255565b5f805b600d548110156119e9575f818152600b6020908152604091829020825160a08101845281546001600160a01b031681526001820154928101929092526002810154928201929092526003820154606082015260049091015460ff161515608082018190526119e0578060400151851080156119d05750806020015184115b156119e0576001925050506119ee565b50600101611952565b505f90505b92915050565b5f61271060045483611a069190611d9a565b611a109190611db1565b90508060025f828254611a239190611fc9565b90915550506005545f9061271090611a3b9085611d9a565b611a459190611db1565b6006546040519192505f916001600160a01b039091169083908381818185875af1925050503d805f8114611a94576040519150601f19603f3d011682016040523d82523d5f602084013e611a99565b606091505b5050905080611ae35760405162461bcd60e51b81526020600482015260166024820152755461786120706c617461666f726d612066616c686f7560501b60448201526064016105c8565b5f61271060035486611af59190611d9a565b611aff9190611db1565b90505f5f5f9054906101000a90046001600160a01b03166001600160a01b03166318160ddd6040518163ffffffff1660e01b8152600401602060405180830381865afa158015611b51573d5f5f3e3d5ffd5b505050506040513d601f19601f82011682018060405250810190611b759190611deb565b90505f5b600954811015611c6a575f60098281548110611b9757611b97611fdc565b5f91825260208220015481546040516370a0823160e01b81526001600160a01b039283166004820181905294509116906370a0823190602401602060405180830381865afa158015611beb573d5f5f3e3d5ffd5b505050506040513d601f19601f82011682018060405250810190611c0f9190611deb565b90508015611c60575f84611c238388611d9a565b611c2d9190611db1565b6001600160a01b0384165f90815260086020526040812080549293508392909190611c59908490611fc9565b9091555050505b5050600101611b79565b50505050505050565b5f516020611ff15f395f51905f5254600203610fda57604051633ee5aeb560e01b815260040160405180910390fd5b6001600160a01b038116811461075b575f5ffd5b5f60208284031215611cc6575f5ffd5b8135611cd181611ca2565b9392505050565b5f60208284031215611ce8575f5ffd5b5035919050565b5f5f60408385031215611d00575f5ffd5b50508035926020909101359150565b5f5f5f60408486031215611d21575f5ffd5b83359250602084013567ffffffffffffffff811115611d3e575f5ffd5b8401601f81018613611d4e575f5ffd5b803567ffffffffffffffff811115611d64575f5ffd5b866020828401011115611d75575f5ffd5b939660209190910195509293505050565b634e487b7160e01b5f52601160045260245ffd5b80820281158282048414176119ee576119ee611d86565b5f82611dcb57634e487b7160e01b5f52601260045260245ffd5b500490565b5f60208284031215611de0575f5ffd5b8151611cd181611ca2565b5f60208284031215611dfb575f5ffd5b5051919050565b6020808252601e908201527f4170656e617320636f74697374617320706f64656d2065786563757461720000604082015260600190565b818103818111156119ee576119ee611d86565b5f60018201611e5d57611e5d611d86565b5060010190565b5f60208284031215611e74575f5ffd5b815160ff81168114611cd1575f5ffd5b6001815b6001841115611ebf57808504811115611ea357611ea3611d86565b6001841615611eb157908102905b60019390931c928002611e88565b935093915050565b5f82611ed5575060016119ee565b81611ee157505f6119ee565b8160018114611ef75760028114611f0157611f1d565b60019150506119ee565b60ff841115611f1257611f12611d86565b50506001821b6119ee565b5060208310610133831016604e8410600b8410161715611f40575081810a6119ee565b611f4c5f198484611e84565b805f1904821115611f5f57611f5f611d86565b029392505050565b5f611cd160ff841683611ec7565b5f60208284031215611f85575f5ffd5b81518015158114611cd1575f5ffd5b83815260406020820152816040820152818360608301375f818301606090810191909152601f909201601f1916010192915050565b808201808211156119ee576119ee611d86565b634e487b7160e01b5f52603260045260245ffdfe9b779b17422d0df92223018b32b4d1fa46e071723d6817e2486d003becc55f00a2646970667358221220593ac7e2fb6671e16886c9d8ad1e4d4d0a2c2fa881354c9e23a5171f0f6a84d164736f6c634300081c0033",
  "linkReferences": {},
  "deployedLinkReferences": {},
  "immutableReferences": {},
  "inputSourceName": "project/contracts/PropertyMarket.sol",
  "buildInfoId": "solc-0_8_28-2ce945f2dbb4304115ef8a393c90d168362d81b9"
}